:020000040800F2
:1000000070170020450100088D0E0008DB0C000869
:100010000D0E0008B1010008551B0008000000008B
:10002000000000000000000000000000DB110008DC
:10003000090A000800000000150F0008ED12000872
:100040005F0100085F0100085F0100085F01000810
:100050005F0100085F0100085F0100085F01000800
:100060005F0100085F0100085F0100085F010008F0
:100070005F0100085F0100085F0100085F010008E0
:100080005F0100085F0100085F0100085F010008D0
:10009000ED1A00085F0100085F0100085F01000819
:1000A0005F0100085F0100085F0100085F010008B0
:1000B0005F0100085F0100085F0100085F010008A0
:1000C0005F0100085F0100085F0100085F01000890
:1000D0005F010008191800085F0100085F010008AF
:1000E0005F0100085F0100085F0100085F01000870
:1000F0005F0100085F0100085F0100085F01000860
:100100005F0100085F0100085F0100085F0100084F
:100110005F0100085F0100085F0100085F0100083F
:100120005F0100085F0100085F0100085F0100082F
:10013000DFF80CD000F02AF800480047951F0008AF
:10014000701700200648804706480047FEE7FEE794
:10015000FEE7FEE7FEE7FEE7FEE7FEE7FEE7FEE777
:10016000F112000831010008D2B201E000F8012BC1
:10017000491EFBD270470022F6E710B513460A4627
:1001800004461946FFF7F0FF204610BD064C074D08
:1001900006E0E06840F0010394E807009847103457
:1001A000AC42F6D3FFF7C8FFD4200008F4200008C3
:1001B00000BFFEE710B50021837A012202FA03F1A5
:1001C0003D4A126842F001023B4B1A603A4A1C3227
:1001D00012688A43384B1C331A60027BCAB9364A0C
:1001E0000C3212688A43344B0C331A604288C3883D
:1001F00042EA0343304A4032847A42F8343002887B
:10020000838842EA03432C4A4032847A02EBC402D8
:100210005360027B012A19D1274A0C3212680A4323
:10022000254B0C331A604288038842EA0343224A72
:100230004032847A42F83430C288838842EA0343E9
:100240001D4A4032847A02EBC4025360C27A3AB942
:10025000194A121D12688A43174B1B1D1A6006E0CB
:10026000154A121D12680A43134B1B1D1A6002899E
:1002700032B9114A143212688A430F4B14331A6090
:100280000289012A06D10C4A143212680A430A4B29
:1002900014331A60427B012A06D1074A1C321268C5
:1002A0000A43054B1C331A60034A126822F001020C
:1002B000014B1A6010BD0000006600401AB143698E
:1002C0000B43436102E043698B434361704730B5A0
:1002D000024600200023146824F00204146014680D
:1002E00044F00104146000E05B1C546804F0010455
:1002F0001CB94FF6FF74A342F6D1546804F0010410
:100300000CB900206CE08C79012C04D1146844F005
:100310008004146003E0146824F080041460CC7935
:10032000012C04D1146844F04004146003E0146804
:1003300024F0400414600C7A012C04D1146844F0B9
:100340002004146003E0146824F0200414604C7A44
:10035000012C04D1146844F01004146003E0146804
:1003600024F0100414608C7A012C04D1146844F039
:100370000804146003E0146824F008041460CC7AC4
:10038000012C04D1146844F00404146003E01468E0
:1003900024F0040414608C78A407CD7844EA056442
:1003A0000D7944EA05444D7944EA05540D886D1EE3
:1003B0002C43D461146824F001041460002300E08D
:1003C0005B1C546804F001041CB14FF6FF74A34297
:1003D000F6D1546804F001040CB1002000E00120C3
:1003E00030BD00002DE9F0418AB004460D461646A6
:1003F0001F46DDF840800121042000F0ADFD012101
:10040000480600F099FD4FF48050ADF82400032019
:100410008DF8260018208DF8270009A92D4800F036
:100420007EFB4FF40060ADF8240048208DF82700D3
:1004300009A9284800F073FB00208DF81E008DF8F4
:100440001F008DF8200001208DF8210000208DF87C
:1004500022008DF823008DF81A808DF81B408DF84E
:100460001C608DF81D50ADF8187006A91A48FFF7EA
:100470002EFF00208DF812008DF8130001208DF85A
:1004800014000020ADF80800ADF80A00ADF80C002B
:10049000ADF80E00ADF8100001208DF8150002A88F
:1004A000FFF788FE012202210B48FFF707FF142007
:1004B0008DF8040001208DF8050000208DF806005D
:1004C00001208DF8070001A800F0E2FC00200AB02E
:1004D000BDE8F081000801400064004010B500F55F
:1004E000D87303EB01131B6803F004031372137A30
:1004F00053B900F5D87303EB01131B6840F2FF7486
:1005000004EA5353136009E000F5D87303EB0113B9
:100510001B686FF0604404EAD303536000F5D8739E
:1005200003EB01131B6803F00203537200F5D87349
:1005300003EB01135B6803F00F03937200F5D873AC
:1005400003EB01135B681B0AD37400F5D87303EB4C
:1005500001139B68D37200F5D87303EB01139B68FA
:100560001C0A147300F5D87303EB01139B681C0C71
:10057000547300F5D87303EB01139B681B0E937340
:1005800000F5D87303EB0113DB68D37300F5D87360
:1005900003EB0113DB681C0A147400F5D87303EB3A
:1005A0000113DB681C0C547400F5D87303EB0113C2
:1005B000DB681B0E937421B9C36843F02003C3604A
:1005C00003E0036943F02003036110BD10B5024648
:1005D0000020936803F08063B3F1806F00D110E0D6
:1005E000936803F00063B3F1006F01D1012008E0CC
:1005F000936803F08053B3F1805F01D1022000E0E3
:100600000420042874D002F5C07303EB00131B68A8
:1006100003F0010402F5C07303EB00131C600B7AB6
:100620007BB94B7A0C8843EA445302F5C07404EB5F
:1006300000142468234302F5C07404EB0014236003
:1006400010E00B7A4C6843EAC4034C7A234302F56A
:10065000C07404EB00142468234302F5C07404EB57
:10066000001423608B7A03F00F038B7202F5C073C2
:1006700003EB00135B6823F00F0402F5C07303EB78
:1006800000135C6002F5C07303EB00135B688C7AA7
:10069000234302F5C07404EB001463608B7B1C06DB
:1006A0004B7B44EA03440B7B44EA0323CC7A234389
:1006B00002F5C07404EB0014A3608B7C1C064B7C19
:1006C00044EA03440B7C44EA0323CC7B234302F536
:1006D000C07404EB0014E36002F5C07303EB001375
:1006E0001B6843F0010402F5C07303EB00131C60A8
:1006F00010BD000010B50246002321B1012907D02A
:1007000002290FD109E090681D4C00EA04030BE0B8
:1007100090681C4C00EA040306E090681A4C00EA5A
:10072000040301E0002300BF00BF184C181BA342C4
:1007300016D007DC83B16FF08060184470B10228D6
:1007400018D111E0B0F5007F10D0114C204448B111
:10075000B0F5003F0ED10BE002230DE000230BE0CB
:10076000002309E0002307E0012305E0012303E063
:10077000012301E0002300BF00BFD8B210BD00007C
:10078000030000040003000800000310000100083B
:100790000001FFF72DE9F04186B006460F46002420
:1007A00001971220029000208DF80C008DF80D00AA
:1007B00008208DF80E0000BF05E0315D0DF10F003F
:1007C0000155601C84B2082CF7DB1248007800EB5E
:1007D000800000F0FF08404601F0B6FB01A90E487A
:1007E000FFF7F4FE0546002401E0601C84B22946B0
:1007F0000948FFF77FFF18B940F6FF708442F4DB29
:1008000040F6FF70844203DB012006B0BDE8F081B2
:100810000020FAE73D0000200064004000F0805115
:1008200011B10349086001E00249486070470000C7
:10083000040402400000024021B1026842F00102BB
:10084000026004E002684FF6FE731A4002607047CF
:1008500001684FF6FE7211400160002101604160A5
:100860008160C1604B49884208D14A4908394968CA
:1008700041F00F01474A083A51608AE04549143176
:10088000884208D143490839496841F0F001414A9A
:10089000083A51607DE03F492831884208D13D49FE
:1008A0000839496841F470613A4A083A516070E089
:1008B00038493C31884208D136490839496841F401
:1008C0007041344A083A516063E0324950318842FD
:1008D00008D130490839496841F470212D4A083A55
:1008E000516056E02B496431884208D129490839C2
:1008F000496841F47001274A083A516049E02549A6
:100900007831884208D123490839496841F070613B
:10091000204A083A51603CE01F49884206D1011F35
:10092000096841F00F01021F116032E01A491431C9
:10093000884208D11849091F096841F0F001164A98
:10094000121F116025E014492831884208D112494C
:10095000091F096841F470610F4A121F116018E005
:100960000D493C31884208D10B49091F096841F4FF
:100970007041094A121F11600BE00749503188424B
:1009800007D10549091F096841F47021024A121F65
:100990001160704708000240080402400146002030
:1009A000002201F0805313B1054B1A6801E0054B9A
:1009B0001A6802EA01030BB1012000E00020704731
:1009C000000402400000024010B50022026847F611
:1009D000F0739A430C6A8B6823430C6923434C6978
:1009E00023438C692343CC6923434C6A23438C6A99
:1009F00023431A430260CB6843600B6883604B68F3
:100A0000C36010BD416070477047000030B50446B8
:100A100004254FF4302000F06FF80546042D17D15F
:100A20000C48006940F002000A4908610846446128
:100A3000006940F0400008614FF4302000F05CF89D
:100A400005460448006941F6FD7108400149086106
:100A5000284630BD0020024004200B49C96801F03F
:100A6000010109B101200EE00749C96801F0040144
:100A700009B1022007E00449C96801F0100109B179
:100A8000032000E004207047002002400348006972
:100A900040F08000014908617047000000200240DA
:100AA00070B504460D460426F00200F025F806460F
:100AB000042E11D10948006940F00100074908617E
:100AC0002580F00200F018F806460448006941F657
:100AD000FE71084001490861304670BD00200240A7
:100AE000024803494860034848607047230167454E
:100AF00000200240AB89EFCD00B502460423FFF78A
:100B0000ABFF034603E0FFF7A7FF0346521E012B8E
:100B100001D1002AF7D102B90523184600BD2DE9FD
:100B2000F041024600250026002000230024002773
:100B300091F803C00CF00F0591F803C00CF0100CF5
:100B4000BCF1000F03D091F802C04CEA050591F802
:100B500000C0BCF1000F31D0146800202BE04FF032
:100B6000010C0CFA00F3B1F800C00CEA03069E4237
:100B700020D183004FF00F0C0CFA03F7BC4305FAA9
:100B800003FC4CEA040491F803C0BCF1280F06D121
:100B90004FF0010C0CFA00FCC2F814C00AE091F806
:100BA00003C0BCF1480F05D14FF0010C0CFA00FC5A
:100BB000C2F810C0401C0828D1D31460B1F800C09E
:100BC000BCF1FF0F34DD546800202EE000F1080C6A
:100BD0004FF0010808FA0CF3B1F800C00CEA030664
:100BE0009E4221D183004FF00F0C0CFA03F7BC4357
:100BF00005FA03FC4CEA040491F803C0BCF1280F89
:100C000005D100F1080C08FA0CF8C2F8148091F82C
:100C100003C0BCF1480F07D100F1080C4FF00108E8
:100C200008FA0CF8C2F81080401C0828CED3546093
:100C3000BDE8F081F0B50A4600230024002100251C
:100C400000F00046B6F1004F02D11D4EF16901E0FF
:100C50001B4E7168C0F3034583B200F44016B6F52D
:100C6000401F08D121F07061154E766826F070663D
:100C7000134F7E6012E000F48016B6F5801F06D197
:100C8000032606FA05F4A14341F0706106E0460D23
:100C9000360103FA06F6B14341F0706122B1460D08
:100CA000360103FA06F6314300F00046B6F1004F74
:100CB00002D1034EF16101E0014E7160F0BD000010
:100CC000000001400246002093680B400BB1012058
:100CD00000E0002070470161704700BFFEE70000A0
:100CE00008B50121442000F037F91820ADF80000C4
:100CF00048208DF8030069460648FFF710FF0120E1
:100D0000ADF8000028208DF8030069460248FFF77F
:100D100006FF08BD001801400008014010B5044658
:100D200014B10120234908702248007858B31021DB
:100D30002148FFF7C7FF50B108211F48FFF7C2FF46
:100D400028B101211D48FFF7BDFF01281BD10A2052
:100D500001F0FAF800201749087010211648FFF733
:100D6000B1FF08B9012010BD08211348FFF7AAFF01
:100D700008B90220F7E701211048FFF7A3FF012877
:100D800015D10320EFE710210B48FFF79BFF012847
:100D90000DD108210848FFF795FF012807D101214F
:100DA0000648FFF78FFF10B90120024908700020A4
:100DB000D9E70000000000200018014000080140B1
:100DC00008B50121482000F0C7F82020ADF8000048
:100DD00010208DF8030003208DF8020069460948B1
:100DE000FFF79DFE20210748FFF775FF2020ADF893
:100DF000000069460448FFF792FE20210248FFF7F1
:100E00006AFF08BD000C01400018014000BFFEE76A
:100E100010B50E480E49097800EBC10040787A28D9
:100E200005D14FF4E1710B4800F035FC0CE00748A8
:100E30000749097800EBC1004078742804D14FF4C9
:100E40006171044800F027FC10BD0000780B002001
:100E50003C0000200004004010B50A4840787A2881
:100E600005D14FF4E171084800F015FC08E0054891
:100E70004078742804D14FF46171034800F00BFCF2
:100E800010BD0000B00A00200004004070470000C0
:100E900070B5002100230F22C47804B3154C2468D8
:100EA00004F4E064C4F5E064210AC1F10403CA401B
:100EB000447804FA03F184781440214309010E4C6C
:100EC0000678A155047804F01F050124AC4005788C
:100ED0006D11AD0005F1E025C5F8004109E0047889
:100EE00004F01F050124AC40044D0678761145F846
:100EF000264070BD0CED00E000E400E080E100E081
:100F000002490143024A1160704700000000FA05DF
:100F10000CED00E07047000029B1064A5269024317
:100F2000044B5A6104E0034A52698243014B5A61FF
:100F3000704700000010024029B1064AD2690243FE
:100F4000044BDA6104E0034AD2698243014BDA615F
:100F5000704700000010024029B1064A926902431E
:100F6000044B9A6104E0034A92698243014B9A61FF
:100F7000704700000010024030B50021002200241C
:100F800000232D4D6D6805F00C0121B1042905D019
:100F9000082923D105E0294D056022E0274D056091
:100FA0001FE0254D6D6805F47012234D6D6805F442
:100FB0008034022505EB92421CB9214D5543056052
:100FC0000BE01D4D6D6805F400351DB11C4D5543FA
:100FD000056002E0194D5543056002E0174D0560BC
:100FE00000BF00BF144D6D6805F0F0010909154DF3
:100FF0006B5C0568DD4045600F4D6D6805F4E06190
:10100000090A104D6B5C4568DD4085600A4D6D68CE
:1010100005F46051C90A0B4D6B5C4568DD40C56045
:10102000054D6D6805F44041890B074D6B5CC56843
:10103000B5FBF3F5056130BD0010024000127A00E7
:1010400000093D0001000020110000202DE9FC43B3
:1010500080460C4600260127A14604EBD970C0F358
:101060004F026946404600F01DF8254615E0A542AE
:1010700005D1681E1DF80000A0F1300607E0A5426A
:1010800005D0681E1DF80000303800FB076607EB2E
:1010900087004006070E681EC5B2002DE7DC30460B
:1010A000BDE8FC8330B503460C461546002207E038
:1010B000184600F008F824F812009B1C501C82B25D
:1010C000AA42F5DB30BD0146088870472DE9F05F84
:1010D00080468A461746B8F1006F02D333488045F0
:1010E00001D3BDE8F09FFFF7FBFCA8F1006B4FEACE
:1010F000DB25CBF34909C9F58064A74200DC3C46F7
:101100004DE04FF0006101EBC5204A142849FFF77C
:10111000C9FF00260BE009EB0600254931F8100055
:101120004FF6FF71884200D003E0701C86B2A642E1
:10113000F1DB00BFA6421BDA4FF0006101EBC520D6
:10114000FFF764FC002608E03AF8160006EB0901F8
:10115000174A22F81100701C86B2A642F4DB4FF049
:10116000006101EBC5204A14114900F023F804E0A6
:1011700022465146404600F01DF8A74200D10FE03C
:101180006D1C4FF000090AEB440AA044381B87B2DB
:10119000B7F5806F02DD4FF4806400E03C46B0E7B5
:1011A00000BFFFF773FC00BF9BE7000000000808CA
:1011B000580000202DE9F04105460E461746002450
:1011C00007E036F814102846FFF76AFCAD1C601CD7
:1011D00084B2BC42F5DBBDE8F081704710B500F089
:1011E00001F810BD0CB50020019000903348006854
:1011F00040F480303149086000BF3048006800F496
:10120000003000900198401C0190009818B9019896
:10121000B0F5A06FF1D12948006800F4003010B19A
:101220000120009001E0002000900098012843D1A7
:101230002348006840F01000214908600846006813
:1012400020F0030008600846006840F002000860D3
:101250001A4840681949486008464068486008468E
:10126000406840F4806048600846406820F47C1084
:1012700048600846406840F4E81048600846006846
:1012800040F08070086000BF0C48006800F00070FB
:101290000028F9D00948406820F003000749486059
:1012A0000846406840F00200486000BF03484068BC
:1012B00000F00C000828F9D10CBD0000001002401D
:1012C00000200240042808D14FF0E021096941F0D4
:1012D00004014FF0E022116107E04FF0E0210969BD
:1012E00021F004014FF0E0221161704770470000C7
:1012F00010B51348006840F0010011490860084625
:101300004068104908400E494860084600680E4988
:1013100008400B4908600846006820F480200860F7
:101320000846406820F4FE0048604FF41F008860C3
:10133000FFF754FF4FF000600449086010BD000043
:10134000001002400000FFF8FFFFF6FE08ED00E08D
:1013500000B58BB001210846FFF7DEFD1548FFF709
:1013600077FA1548009015480190102002904FF42C
:101370009670039000200490802005904000069015
:1013800080000790002008904FF4805009900020C2
:101390000A9069460748FFF717FB012211038804EA
:1013A00000F0C4F801221102880500F0BFF80BB06C
:1013B00000BD0000800002404000004058080020AE
:1013C00030B589B005460C4601210920FFF7C4FD60
:1013D00001210846FFF7B0FD01210846FFF79CFDFB
:1013E00001211E48FFF726FC4FF40060ADF8040011
:1013F00018208DF8070003208DF8060001A9184871
:10140000FFF78DFBADF81C50ADF818400020ADF88B
:101410001E00ADF81A0006A94FF0804000F03EF91A
:101420006020ADF808000120ADF80A000020ADF8FA
:101430000E00ADF8100002A94FF0804000F0E0F877
:101440000821C80600F01AF90121880700F056F8B3
:101450000121880700F05EF809B030BD00031800D4
:10146000000C014030B589B005460C460121022030
:10147000FFF762FD01210920FFF76EFD01211C48E5
:10148000FFF7D8FB2020ADF8200018208DF82300AE
:1014900003208DF8220008A91648FFF740FBADF89D
:1014A0001850ADF814400020ADF81A00ADF8160041
:1014B00005A9114800F0F2F87020ADF804000120F1
:1014C000ADF806000020ADF80C0001A90A4800F0B4
:1014D00037F80821084800F085F80121064800F097
:1014E00019F84FF46171044800F0D5F809B030BD27
:1014F00000081A00000C01400004004021B10288DD
:1015000042F08002028004E002884FF67F731A40A6
:101510000280704721B1028842F00102028004E09B
:1015200002884FF6FE731A40028070471AB1838911
:101530000B43838102E083898B43838170470000E2
:1015400070B5002400220023058C4FF6EF7635405D
:101550000584028C8388048B48F6FF752C404FF677
:10156000FF452C400D884FF6FF7606EA05252C43F3
:101570004FF6DF752A400D8906EA05152A434D8886
:1015800006EA05152A43154DA84202D0144DA8427B
:101590001DD14FF67F752A404D894FF6FF7606EA3A
:1015A00005152A434FF6BF752A408D8806EA0515B2
:1015B0002A434FF6FF352B404FF2FF752B408D89A4
:1015C00006EA85052B43CD8906EA85052B438380F2
:1015D0000483CD880587028470BD0000002C014083
:1015E000003401400A460021018B4FF2FF7319407D
:1015F0004FF6FF7303EA022319430183704700008B
:1016000070B5002200230024058C4EF6FF7635408D
:101610000584038C8488828B48F6FF752A404FF638
:10162000FF452A400D884FF6FF7606EA05252A4336
:101630004DF6FF752B400D8906EA05352B434D8885
:1016400006EA05352B430B4DA84202D00A4DA842AD
:1016500008D14BF6FF752C408D894FF6FF7606EAD0
:1016600085152C4384808283CD88A0F84050038464
:1016700070BD0000002C0140003401400A460021EA
:10168000818B4FF2FF7319404FF6FF7303EA022379
:101690001943818370470187704700000022028848
:1016A0001D4B98420ED01D4B98420BD0B0F1804F8D
:1016B00008D01B4B984205D01A4B984202D01A4BC7
:1016C000984204D14FF68F731A404B881A43174B38
:1016D000984207D0164B984204D04FF6FF431A4069
:1016E000CB881A4302808B8883850B8803850A4B3D
:1016F00098420BD0094B984208D00E4B984205D027
:101700000D4B984202D00D4B984201D10B7A0386C3
:101710000123838270470000002C01400034014007
:101720000004004000080040000C00400010004091
:1017300000140040004001400044014000480140C6
:101740000024312632E00020FFF7E8FA0546184869
:10175000008800F4004020B100F0FEF90020144998
:101760000880012D14D11348006808B9012000E059
:10177000002010490860002404E030190E49085583
:10178000601CC4B2092CF8DB16210B48FFF702F8E5
:1017900008E00A48007800F045FB08480078401E41
:1017A00006490870054800780028F2D1CBE7000010
:1017B0001A00002094812142300000203C000020CB
:1017C00008B500F09FFB4FF4A060FFF799FB4FF4C2
:1017D000E13000F0E7FBFFF7F3FAFFF781FA0020B2
:1017E0001823012202210090FEF7FCFD0021402079
:1017F000FFF7E6FDFFF7ACFD002140F28330FFF775
:1018000031FE02210248FFF721FC0249087008BDA1
:10181000000007083D00002010B540F225511D488A
:1018200000F09FF810B31B4800F056F9C4B21A48F4
:10183000008800F40040C8B91748008800F48040D0
:1018400060B10A2C03D000201349088020E0124820
:10185000008840F400401049088019E00D2C06D1A2
:101860000D48008840F480400B49088010E00A4889
:101870000088C0F30D0009490C5407480088401C3B
:101880000549088008460088C72801DD0020088037
:1018900010BD0000003801401A000020B00A0020EE
:1018A0002DE9FC4380460C4600260127A14604EBA7
:1018B000D970C0F34F0269464046FFF7F3FB254657
:1018C00015E0A54205D1681E1DF80000A0F1300604
:1018D00007E0A54205D0681E1DF80000303800FB67
:1018E000076607EB87004006070E681EC5B2002D8D
:1018F000E7DC3046BDE8FC832DE9FC4106460C469A
:10190000002506E00949A81C085C0DF80500681CC4
:10191000C5B2A542F6DB274604EBD770C0F34F02F1
:1019200069463046FFF7D2FBBDE8FC81B00A0020D3
:1019300021B1828942F40052828104E082894DF60D
:10194000FF731A408281704702460020B1F5007F84
:1019500000D100BF13880B400BB1012000E0002034
:10196000704770B50246002400230025002040F691
:101970006A16B14200D100BFC1F3421501F01F0346
:10198000012606FA03F3012D02D19689334006E0C1
:10199000022D02D1168A334001E0968A33400C12A0
:1019A000012606FA04F41688344013B10CB1012064
:1019B00000E0002070BDF0B503460024002600259D
:1019C000002040F66A17B94200D100BF1846C1F3A3
:1019D000421401F01F06012707FA06F5012C01D178
:1019E0000C3004E0022C01D1103000E014301AB1A8
:1019F00007682F43076002E00768AF430760F0BD48
:101A00002DE9F04786B005460E460024A24600BFE9
:101A1000A1460027B08900B100BF2F462C8A4CF6A2
:101A2000FF700440F08804432C82AC894EF6F3101A
:101A30000440B08831890843718908430443AC816C
:101A4000AC8A4FF6FF400440B0890443AC8201A841
:101A5000FFF792FA1F48874202D1DDF810A001E09B
:101A6000DDF80CA0A88900F4004040B10AEBCA00E0
:101A700000EB0A1031684900B0FBF1F807E00AEB0F
:101A8000CA0000EB0A1031688900B0FBF1F864204D
:101A9000B8FBF0F004012009642101FB1089A8893A
:101AA00000F4004040B1322000EBC900B0FBF1F07F
:101AB00000F00700044308E0322000EB0910642125
:101AC000B0FBF1F000F00F0004432C8106B0BDE83C
:101AD000F08700000038014001468888C0F3080004
:101AE0007047C1F3080282807047000010B586B0CD
:101AF00001AA00211248FEF7F1FC12490198087072
:101B00000846007810490978884202D00D480078CC
:101B100098B90E480078401C0C49087000240AE06F
:101B20000DF10F00005D0A49084A127801EBC2016D
:101B30000855601CC4B2082CF2DB06B010BD0000D2
:101B400000640040380000203D0000203C000020E0
:101B5000780B002000BFFEE710B50E48007A303841
:101B600000EB80004006000E0B4908700948407ADF
:101B70003038097808440849087008460078074951
:101B80000978884202D00448007808B900F05AFA6F
:101B900010BD0000B00A00203B0000203D000020E6
:101BA00070B505460E4626480078642190FBF1F298
:101BB00001FB12000A2190FBF1F03030214908703E
:101BC0001F4800780A2190FBF1F201FB120030302F
:101BD0001C49487000240CE0295D1B48FFF781FF79
:101BE00000BF40211848FFF7AFFE0128F9D1601C63
:101BF000C4B2082CF0DB00240CE0315D1248FFF782
:101C000070FF00BF40211048FFF79EFE0128F9D168
:101C1000601CC4B2022CF0DB00240DE00B48015D17
:101C20000948FFF75EFF00BF40210748FFF78CFE21
:101C30000128F9D1601CC4B2022CEFDB70BD00009A
:101C40003D0000203E0000200038014054000020EC
:101C500000B5ADF5417D4FF4407101A8FEF78BFA58
:101C600005484078303881B20DF1070000F01EF8C9
:101C70000DF5417D00BD0000B00A002000B5ADF5B6
:101C8000417D4FF4407101A8FEF775FA64208DF88C
:101C9000070005484078303881B20DF1070000F0A8
:101CA00005F80DF5417D00BDB00A00202DE9F04199
:101CB00007460E4606EB46002B2101EBC0001FFA3B
:101CC00080F8002445E0002512E0701E00EB400083
:101CD00038444078A84000F0800008B12B2000E094
:101CE0001520354921F81400601C84B2681CC5B267
:101CF000082DEADB002511E0701E00EB4000385C87
:101D0000A84000F0800008B12B2000E015202A49EF
:101D100021F81400601C84B2681CC5B2082DEBDBEE
:101D2000002512E0701E00EB400038448078A84087
:101D300000F0800008B12B2000E015201E4921F89A
:101D40001400601C84B2681CC5B2082DEADB701E4A
:101D500086B2002EB7D10020174921F81400601C6C
:101D600084B205E00020144921F81400601C84B2FC
:101D70004445F7DB41461148FEF744FE01210F4878
:101D8000FEF75AFD01218807FFF7C4FB00BF4FF0A3
:101D90000070FEF703FE0028F9D000210748FEF787
:101DA0004BFD4FF00070FEF739FD00214FF08040F1
:101DB000FFF7B0FBBDE8F08158080020800002402A
:101DC0002DE9FC4106460C4600250AE00B480C496B
:101DD000097800EBC101A81C085C0DF80500681C1F
:101DE000C5B2A542F2DB274604EBD770C0F34F0221
:101DF00069463046FFF76AF9BDE8FC81780B0020A0
:101E00003C00002002E008C8121F08C1002AFAD1D5
:101E100070477047002001E001C1121F002AFBD16A
:101E20007047000010B504462F4810F834006428AD
:101E300031D006DC612809D062280DD0632850D14A
:101E400021E065282FD073284BD142E02748017844
:101E50002748FEF79FFC44E02648006808B90120A7
:101E600000E00020234908602348D0F8940108B915
:101E7000012000E000201F4908601C4801781F482D
:101E8000FEF788FC2DE0FFF7E3FE184801781B48B9
:101E9000FEF780FC25E0FFF7F1FE144801781748B3
:101EA000FEF778FC1DE0104800EBC4004078612884
:101EB00009D102211248FFF783FF02211048FFF7E2
:101EC000C5F80A490870094801780C48FEF762FC19
:101ED00007E0FEF79DFF054801780848FEF75AFC29
:101EE00000BF00BF10BD0000780B00203D000020A7
:101EF00040000020940123420000234249000020BA
:101F00000000070810B56FF00400FFF7DBF90A487E
:101F100000680A49B0FBF1F00949087008460078EA
:101F200000EB4001C1EBC0104FF6FF7101EAC000A9
:101F30000449088010BD00001C00002000127A0037
:101F400016000020180000200146114A12884A435A
:101F50004FF0E0235A6100229A611A46126942F05A
:101F600001021A6100BF4FF0E022106900F0010287
:101F70001AB100F48032002AF5D04FF0E022126945
:101F800022F001024FF0E0231A6100229A617047AB
:101F90001800002010B5FFF713FCFFF7D1FB00205D
:101FA00010BD000010B586B00446012144F20400C3
:101FB000FEF7D2FF4FF40070ADF8140003208DF847
:101FC000160018208DF8170005A91C48FEF7A7FD7C
:101FD0004FF48060ADF8140004208DF8170005A9B7
:101FE0001648FEF79CFD25208DF8000003208DF893
:101FF00001008DF8020001208DF803006846FEF70D
:1020000047FF01940020ADF80800ADF80A00ADF8D4
:102010000C00ADF810000C20ADF80E0001A9084826
:10202000FFF7EEFC012240F225510548FFF7C3FC03
:1020300001210348FFF77CFC06B010BD00080140F9
:102040000038014010B51C480078612806D062288D
:1020500009D0652814D073282CD124E017491848DA
:10206000FFF79EFD26E01748006808B9012000E050
:1020700000201449086011491348FFF791FD19E049
:102080000D484078612809D102211048FFF734FC3F
:1020900002210E48FFF704FC0D49087007490A4861
:1020A000FFF77EFD06E0FEF7D7FE04490648FFF77E
:1020B00077FD00BF00BF10BDB00A00203E00002029
:1020C000400000209401234249000020000007083E
:1020D0003D000020F420000800000020580000000F
:1020E000041E00084C2100085800002018170000AA
:1020F000141E000801000000000102030401020395
:102100000406070809020406080000000000000099
:1021100000A24A04000000000000000001020304C5
:102120000607080900000000000000000000000091
:1021300000020000526576302E302E32004F4B20C8
:0C21400020202020202020000D0A00009C
:0400000508000131BD
:00000001FF
